{
  "contractName": "Property",
  "abi": [
    {
      "inputs": [],
      "stateMutability": "nonpayable",
      "type": "constructor"
    },
    {
      "inputs": [
        {
          "internalType": "uint256",
          "name": "",
          "type": "uint256"
        }
      ],
      "name": "investings",
      "outputs": [
        {
          "components": [
            {
              "internalType": "string",
              "name": "userName",
              "type": "string"
            },
            {
              "internalType": "address",
              "name": "userAddress",
              "type": "address"
            },
            {
              "internalType": "uint256",
              "name": "userMobile",
              "type": "uint256"
            },
            {
              "internalType": "uint256",
              "name": "userId",
              "type": "uint256"
            },
            {
              "internalType": "string",
              "name": "emailAddress",
              "type": "string"
            },
            {
              "internalType": "uint256",
              "name": "userPanCrad",
              "type": "uint256"
            },
            {
              "internalType": "uint256",
              "name": "userAdharCrad",
              "type": "uint256"
            },
            {
              "internalType": "bool",
              "name": "validUser",
              "type": "bool"
            }
          ],
          "internalType": "struct Property.Profile",
          "name": "profileData",
          "type": "tuple"
        },
        {
          "internalType": "uint256",
          "name": "investedPropertyId",
          "type": "uint256"
        },
        {
          "internalType": "uint256",
          "name": "userId",
          "type": "uint256"
        },
        {
          "internalType": "uint256",
          "name": "investingAmount",
          "type": "uint256"
        },
        {
          "internalType": "uint256",
          "name": "time",
          "type": "uint256"
        }
      ],
      "stateMutability": "view",
      "type": "function",
      "constant": true
    },
    {
      "inputs": [
        {
          "internalType": "uint256",
          "name": "",
          "type": "uint256"
        }
      ],
      "name": "listProperties",
      "outputs": [
        {
          "components": [
            {
              "internalType": "string",
              "name": "userName",
              "type": "string"
            },
            {
              "internalType": "address",
              "name": "userAddress",
              "type": "address"
            },
            {
              "internalType": "uint256",
              "name": "userMobile",
              "type": "uint256"
            },
            {
              "internalType": "uint256",
              "name": "userId",
              "type": "uint256"
            },
            {
              "internalType": "string",
              "name": "emailAddress",
              "type": "string"
            },
            {
              "internalType": "uint256",
              "name": "userPanCrad",
              "type": "uint256"
            },
            {
              "internalType": "uint256",
              "name": "userAdharCrad",
              "type": "uint256"
            },
            {
              "internalType": "bool",
              "name": "validUser",
              "type": "bool"
            }
          ],
          "internalType": "struct Property.Profile",
          "name": "profileData",
          "type": "tuple"
        },
        {
          "internalType": "uint256",
          "name": "currentPropertyId",
          "type": "uint256"
        },
        {
          "internalType": "uint256",
          "name": "listingAmount",
          "type": "uint256"
        },
        {
          "internalType": "uint256",
          "name": "availableAmount",
          "type": "uint256"
        },
        {
          "internalType": "uint256",
          "name": "longitude",
          "type": "uint256"
        },
        {
          "internalType": "uint256",
          "name": "latitude",
          "type": "uint256"
        },
        {
          "internalType": "string",
          "name": "propertySize",
          "type": "string"
        },
        {
          "internalType": "string",
          "name": "residentialAddress",
          "type": "string"
        },
        {
          "internalType": "uint256",
          "name": "durationsDays",
          "type": "uint256"
        },
        {
          "internalType": "uint256",
          "name": "minimumAmount",
          "type": "uint256"
        },
        {
          "internalType": "string",
          "name": "ipfsHash",
          "type": "string"
        },
        {
          "internalType": "address payable",
          "name": "userAddress",
          "type": "address"
        }
      ],
      "stateMutability": "view",
      "type": "function",
      "constant": true
    },
    {
      "inputs": [],
      "name": "manager",
      "outputs": [
        {
          "internalType": "address payable",
          "name": "",
          "type": "address"
        }
      ],
      "stateMutability": "view",
      "type": "function",
      "constant": true
    },
    {
      "inputs": [
        {
          "internalType": "uint256",
          "name": "",
          "type": "uint256"
        }
      ],
      "name": "profiles",
      "outputs": [
        {
          "internalType": "string",
          "name": "userName",
          "type": "string"
        },
        {
          "internalType": "address",
          "name": "userAddress",
          "type": "address"
        },
        {
          "internalType": "uint256",
          "name": "userMobile",
          "type": "uint256"
        },
        {
          "internalType": "uint256",
          "name": "userId",
          "type": "uint256"
        },
        {
          "internalType": "string",
          "name": "emailAddress",
          "type": "string"
        },
        {
          "internalType": "uint256",
          "name": "userPanCrad",
          "type": "uint256"
        },
        {
          "internalType": "uint256",
          "name": "userAdharCrad",
          "type": "uint256"
        },
        {
          "internalType": "bool",
          "name": "validUser",
          "type": "bool"
        }
      ],
      "stateMutability": "view",
      "type": "function",
      "constant": true
    },
    {
      "inputs": [],
      "name": "propertyId",
      "outputs": [
        {
          "internalType": "uint256",
          "name": "",
          "type": "uint256"
        }
      ],
      "stateMutability": "view",
      "type": "function",
      "constant": true
    },
    {
      "inputs": [],
      "name": "userId",
      "outputs": [
        {
          "internalType": "uint256",
          "name": "",
          "type": "uint256"
        }
      ],
      "stateMutability": "view",
      "type": "function",
      "constant": true
    },
    {
      "inputs": [
        {
          "internalType": "string",
          "name": "_name",
          "type": "string"
        },
        {
          "internalType": "uint256",
          "name": "_mobile",
          "type": "uint256"
        },
        {
          "internalType": "string",
          "name": "_email",
          "type": "string"
        },
        {
          "internalType": "uint256",
          "name": "_pan",
          "type": "uint256"
        },
        {
          "internalType": "uint256",
          "name": "_adhar",
          "type": "uint256"
        }
      ],
      "name": "profile",
      "outputs": [],
      "stateMutability": "payable",
      "type": "function",
      "payable": true
    },
    {
      "inputs": [
        {
          "internalType": "uint256",
          "name": "_userId",
          "type": "uint256"
        },
        {
          "internalType": "uint256",
          "name": "_long",
          "type": "uint256"
        },
        {
          "internalType": "uint256",
          "name": "_lati",
          "type": "uint256"
        },
        {
          "internalType": "string",
          "name": "_size",
          "type": "string"
        },
        {
          "internalType": "string",
          "name": "_rAddress",
          "type": "string"
        },
        {
          "internalType": "uint256",
          "name": "_dueDate",
          "type": "uint256"
        },
        {
          "internalType": "uint256",
          "name": "_minAmount",
          "type": "uint256"
        },
        {
          "internalType": "string",
          "name": "_ipfsHashImg",
          "type": "string"
        }
      ],
      "name": "listNewProperty",
      "outputs": [],
      "stateMutability": "payable",
      "type": "function",
      "payable": true
    },
    {
      "inputs": [
        {
          "internalType": "uint256",
          "name": "_propertyId",
          "type": "uint256"
        },
        {
          "internalType": "uint256",
          "name": "_userId",
          "type": "uint256"
        }
      ],
      "name": "investing",
      "outputs": [],
      "stateMutability": "payable",
      "type": "function",
      "payable": true
    },
    {
      "inputs": [
        {
          "internalType": "uint256",
          "name": "_id",
          "type": "uint256"
        }
      ],
      "name": "transferEthToOwner",
      "outputs": [],
      "stateMutability": "payable",
      "type": "function",
      "payable": true
    }
  ],
  "bytecode": "0x608060405234801561001057600080fd5b50336000806101000a81548173ffffffffffffffffffffffffffffffffffffffff021916908373ffffffffffffffffffffffffffffffffffffffff160217905550612e04806100606000396000f3fe6080604052600436106100915760003560e01c80639c386174116100595780639c38617414610140578063c36fe3d614610188578063cdad6534146101cc578063ce7c5d7f1461020d578063ee7a3b8e1461022957610091565b80633b30ac7814610096578063481c6a75146100b257806358975919146100dd5780637814752f14610108578063918b84f914610124575b600080fd5b6100b060048036038101906100ab9190612349565b610254565b005b3480156100be57600080fd5b506100c7610723565b6040516100d49190612494565b60405180910390f35b3480156100e957600080fd5b506100f2610747565b6040516100ff91906124be565b60405180910390f35b610122600480360381019061011d91906124d9565b61074d565b005b61013e60048036038101906101399190612519565b611201565b005b34801561014c57600080fd5b50610167600480360381019061016291906125cc565b611421565b60405161017f9c9b9a999897969594939291906127cd565b60405180910390f35b34801561019457600080fd5b506101af60048036038101906101aa91906125cc565b611801565b6040516101c39897969594939291906128c1565b60405180910390f35b3480156101d857600080fd5b506101f360048036038101906101ee91906125cc565b611986565b60405161020495949392919061294d565b60405180910390f35b610227600480360381019061022291906125cc565b611b94565b005b34801561023557600080fd5b5061023e612110565b60405161024b91906124be565b60405180910390f35b60003411610297576040517f08c379a000000000000000000000000000000000000000000000000000000000815260040161028e906129f3565b60405180910390fd5b6000600360008a8152602001908152602001600020604051806101000160405290816000820180546102c890612a42565b80601f01602080910402602001604051908101604052809291908181526020018280546102f490612a42565b80156103415780601f1061031657610100808354040283529160200191610341565b820191906000526020600020905b81548152906001019060200180831161032457829003601f168201915b505050505081526020016001820160009054906101000a900473ffffffffffffffffffffffffffffffffffffffff1673ffffffffffffffffffffffffffffffffffffffff1673ffffffffffffffffffffffffffffffffffffffff16815260200160028201548152602001600382015481526020016004820180546103c490612a42565b80601f01602080910402602001604051908101604052809291908181526020018280546103f090612a42565b801561043d5780601f106104125761010080835404028352916020019161043d565b820191906000526020600020905b81548152906001019060200180831161042057829003601f168201915b5050505050815260200160058201548152602001600682015481526020016007820160009054906101000a900460ff1615151515815250509050600115158160e001511515146104c2576040517f08c379a00000000000000000000000000000000000000000000000000000000081526004016104b990612ac0565b60405180910390fd5b600260008154809291906104d590612b0f565b919050555060405180610180016040528082815260200160025481526020013481526020013481526020018981526020018881526020018781526020018681526020018581526020018481526020018381526020013373ffffffffffffffffffffffffffffffffffffffff16815250600460006002548152602001908152602001600020600082015181600001600082015181600001908051906020019061057e929190612116565b5060208201518160010160006101000a81548173ffffffffffffffffffffffffffffffffffffffff021916908373ffffffffffffffffffffffffffffffffffffffff160217905550604082015181600201556060820151816003015560808201518160040190805190602001906105f6929190612116565b5060a0820151816005015560c0820151816006015560e08201518160070160006101000a81548160ff02191690831515021790555050506020820151816008015560408201518160090155606082015181600a0155608082015181600b015560a082015181600c015560c082015181600d01908051906020019061067b929190612116565b5060e082015181600e019080519060200190610698929190612116565b5061010082015181600f015561012082015181601001556101408201518160110190805190602001906106cc929190612116565b506101608201518160120160006101000a81548173ffffffffffffffffffffffffffffffffffffffff021916908373ffffffffffffffffffffffffffffffffffffffff160217905550905050505050505050505050565b60008054906101000a900473ffffffffffffffffffffffffffffffffffffffff1681565b60015481565b6000600360008381526020019081526020016000206040518061010001604052908160008201805461077e90612a42565b80601f01602080910402602001604051908101604052809291908181526020018280546107aa90612a42565b80156107f75780601f106107cc576101008083540402835291602001916107f7565b820191906000526020600020905b8154815290600101906020018083116107da57829003601f168201915b505050505081526020016001820160009054906101000a900473ffffffffffffffffffffffffffffffffffffffff1673ffffffffffffffffffffffffffffffffffffffff1673ffffffffffffffffffffffffffffffffffffffff168152602001600282015481526020016003820154815260200160048201805461087a90612a42565b80601f01602080910402602001604051908101604052809291908181526020018280546108a690612a42565b80156108f35780601f106108c8576101008083540402835291602001916108f3565b820191906000526020600020905b8154815290600101906020018083116108d657829003601f168201915b5050505050815260200160058201548152602001600682015481526020016007820160009054906101000a900460ff161515151581525050905060006004600085815260200190815260200160002060405180610180016040529081600082016040518061010001604052908160008201805461096f90612a42565b80601f016020809104026020016040519081016040528092919081815260200182805461099b90612a42565b80156109e85780601f106109bd576101008083540402835291602001916109e8565b820191906000526020600020905b8154815290600101906020018083116109cb57829003601f168201915b505050505081526020016001820160009054906101000a900473ffffffffffffffffffffffffffffffffffffffff1673ffffffffffffffffffffffffffffffffffffffff1673ffffffffffffffffffffffffffffffffffffffff1681526020016002820154815260200160038201548152602001600482018054610a6b90612a42565b80601f0160208091040260200160405190810160405280929190818152602001828054610a9790612a42565b8015610ae45780601f10610ab957610100808354040283529160200191610ae4565b820191906000526020600020905b815481529060010190602001808311610ac757829003601f168201915b5050505050815260200160058201548152602001600682015481526020016007820160009054906101000a900460ff16151515158152505081526020016008820154815260200160098201548152602001600a8201548152602001600b8201548152602001600c8201548152602001600d82018054610b6290612a42565b80601f0160208091040260200160405190810160405280929190818152602001828054610b8e90612a42565b8015610bdb5780601f10610bb057610100808354040283529160200191610bdb565b820191906000526020600020905b815481529060010190602001808311610bbe57829003601f168201915b50505050508152602001600e82018054610bf490612a42565b80601f0160208091040260200160405190810160405280929190818152602001828054610c2090612a42565b8015610c6d5780601f10610c4257610100808354040283529160200191610c6d565b820191906000526020600020905b815481529060010190602001808311610c5057829003601f168201915b50505050508152602001600f820154815260200160108201548152602001601182018054610c9a90612a42565b80601f0160208091040260200160405190810160405280929190818152602001828054610cc690612a42565b8015610d135780601f10610ce857610100808354040283529160200191610d13565b820191906000526020600020905b815481529060010190602001808311610cf657829003601f168201915b505050505081526020016012820160009054906101000a900473ffffffffffffffffffffffffffffffffffffffff1673ffffffffffffffffffffffffffffffffffffffff1673ffffffffffffffffffffffffffffffffffffffff16815250509050348161012001511115610dbc576040517f08c379a0000000000000000000000000000000000000000000000000000000008152600401610db390612ba4565b60405180910390fd5b3481606001511015610e03576040517f08c379a0000000000000000000000000000000000000000000000000000000008152600401610dfa90612c36565b60405180910390fd5b600115158260e00151151514610e4e576040517f08c379a0000000000000000000000000000000000000000000000000000000008152600401610e4590612ac0565b60405180910390fd5b60006040518060a0016040528084815260200186815260200184606001518152602001348152602001428152509050348260600151610e8d9190612c56565b82606001818152505081600460008781526020019081526020016000206000820151816000016000820151816000019080519060200190610ecf929190612116565b5060208201518160010160006101000a81548173ffffffffffffffffffffffffffffffffffffffff021916908373ffffffffffffffffffffffffffffffffffffffff16021790555060408201518160020155606082015181600301556080820151816004019080519060200190610f47929190612116565b5060a0820151816005015560c0820151816006015560e08201518160070160006101000a81548160ff02191690831515021790555050506020820151816008015560408201518160090155606082015181600a0155608082015181600b015560a082015181600c015560c082015181600d019080519060200190610fcc929190612116565b5060e082015181600e019080519060200190610fe9929190612116565b5061010082015181600f0155610120820151816010015561014082015181601101908051906020019061101d929190612116565b506101608201518160120160006101000a81548173ffffffffffffffffffffffffffffffffffffffff021916908373ffffffffffffffffffffffffffffffffffffffff16021790555090505060058190806001815401808255809150506001900390600052602060002090600c020160009091909190915060008201518160000160008201518160000190805190602001906110ba929190612116565b5060208201518160010160006101000a81548173ffffffffffffffffffffffffffffffffffffffff021916908373ffffffffffffffffffffffffffffffffffffffff16021790555060408201518160020155606082015181600301556080820151816004019080519060200190611132929190612116565b5060a0820151816005015560c0820151816006015560e08201518160070160006101000a81548160ff02191690831515021790555050506020820151816008015560408201518160090155606082015181600a0155608082015181600b0155505060008054906101000a900473ffffffffffffffffffffffffffffffffffffffff1673ffffffffffffffffffffffffffffffffffffffff166108fc349081150290604051600060405180830381858888f193505050501580156111f9573d6000803e3d6000fd5b505050505050565b60005b60015481116112cb5760006003600083815260200190815260200160002060010160009054906101000a900473ffffffffffffffffffffffffffffffffffffffff1690503373ffffffffffffffffffffffffffffffffffffffff168173ffffffffffffffffffffffffffffffffffffffff1614156112b7576040517f08c379a00000000000000000000000000000000000000000000000000000000081526004016112ae90612cd6565b60405180910390fd5b5080806112c390612b0f565b915050611204565b50600160008154809291906112df90612b0f565b91905055506040518061010001604052808681526020013373ffffffffffffffffffffffffffffffffffffffff168152602001858152602001600154815260200184815260200183815260200182815260200160011515815250600360006001548152602001908152602001600020600082015181600001908051906020019061136a929190612116565b5060208201518160010160006101000a81548173ffffffffffffffffffffffffffffffffffffffff021916908373ffffffffffffffffffffffffffffffffffffffff160217905550604082015181600201556060820151816003015560808201518160040190805190602001906113e2929190612116565b5060a0820151816005015560c0820151816006015560e08201518160070160006101000a81548160ff0219169083151502179055509050505050505050565b6004602052806000526040600020600091509050806000016040518061010001604052908160008201805461145590612a42565b80601f016020809104026020016040519081016040528092919081815260200182805461148190612a42565b80156114ce5780601f106114a3576101008083540402835291602001916114ce565b820191906000526020600020905b8154815290600101906020018083116114b157829003601f168201915b505050505081526020016001820160009054906101000a900473ffffffffffffffffffffffffffffffffffffffff1673ffffffffffffffffffffffffffffffffffffffff1673ffffffffffffffffffffffffffffffffffffffff168152602001600282015481526020016003820154815260200160048201805461155190612a42565b80601f016020809104026020016040519081016040528092919081815260200182805461157d90612a42565b80156115ca5780601f1061159f576101008083540402835291602001916115ca565b820191906000526020600020905b8154815290600101906020018083116115ad57829003601f168201915b5050505050815260200160058201548152602001600682015481526020016007820160009054906101000a900460ff1615151515815250509080600801549080600901549080600a01549080600b01549080600c01549080600d01805461163090612a42565b80601f016020809104026020016040519081016040528092919081815260200182805461165c90612a42565b80156116a95780601f1061167e576101008083540402835291602001916116a9565b820191906000526020600020905b81548152906001019060200180831161168c57829003601f168201915b50505050509080600e0180546116be90612a42565b80601f01602080910402602001604051908101604052809291908181526020018280546116ea90612a42565b80156117375780601f1061170c57610100808354040283529160200191611737565b820191906000526020600020905b81548152906001019060200180831161171a57829003601f168201915b50505050509080600f01549080601001549080601101805461175890612a42565b80601f016020809104026020016040519081016040528092919081815260200182805461178490612a42565b80156117d15780601f106117a6576101008083540402835291602001916117d1565b820191906000526020600020905b8154815290600101906020018083116117b457829003601f168201915b5050505050908060120160009054906101000a900473ffffffffffffffffffffffffffffffffffffffff1690508c565b600360205280600052604060002060009150905080600001805461182490612a42565b80601f016020809104026020016040519081016040528092919081815260200182805461185090612a42565b801561189d5780601f106118725761010080835404028352916020019161189d565b820191906000526020600020905b81548152906001019060200180831161188057829003601f168201915b5050505050908060010160009054906101000a900473ffffffffffffffffffffffffffffffffffffffff16908060020154908060030154908060040180546118e490612a42565b80601f016020809104026020016040519081016040528092919081815260200182805461191090612a42565b801561195d5780601f106119325761010080835404028352916020019161195d565b820191906000526020600020905b81548152906001019060200180831161194057829003601f168201915b5050505050908060050154908060060154908060070160009054906101000a900460ff16905088565b6005818154811061199657600080fd5b90600052602060002090600c020160009150905080600001604051806101000160405290816000820180546119ca90612a42565b80601f01602080910402602001604051908101604052809291908181526020018280546119f690612a42565b8015611a435780601f10611a1857610100808354040283529160200191611a43565b820191906000526020600020905b815481529060010190602001808311611a2657829003601f168201915b505050505081526020016001820160009054906101000a900473ffffffffffffffffffffffffffffffffffffffff1673ffffffffffffffffffffffffffffffffffffffff1673ffffffffffffffffffffffffffffffffffffffff1681526020016002820154815260200160038201548152602001600482018054611ac690612a42565b80601f0160208091040260200160405190810160405280929190818152602001828054611af290612a42565b8015611b3f5780601f10611b1457610100808354040283529160200191611b3f565b820191906000526020600020905b815481529060010190602001808311611b2257829003601f168201915b5050505050815260200160058201548152602001600682015481526020016007820160009054906101000a900460ff1615151515815250509080600801549080600901549080600a01549080600b0154905085565b60008054906101000a900473ffffffffffffffffffffffffffffffffffffffff1673ffffffffffffffffffffffffffffffffffffffff163373ffffffffffffffffffffffffffffffffffffffff1614611c22576040517f08c379a0000000000000000000000000000000000000000000000000000000008152600401611c1990612d42565b60405180910390fd5b600060046000838152602001908152602001600020604051806101800160405290816000820160405180610100016040529081600082018054611c6490612a42565b80601f0160208091040260200160405190810160405280929190818152602001828054611c9090612a42565b8015611cdd5780601f10611cb257610100808354040283529160200191611cdd565b820191906000526020600020905b815481529060010190602001808311611cc057829003601f168201915b505050505081526020016001820160009054906101000a900473ffffffffffffffffffffffffffffffffffffffff1673ffffffffffffffffffffffffffffffffffffffff1673ffffffffffffffffffffffffffffffffffffffff1681526020016002820154815260200160038201548152602001600482018054611d6090612a42565b80601f0160208091040260200160405190810160405280929190818152602001828054611d8c90612a42565b8015611dd95780601f10611dae57610100808354040283529160200191611dd9565b820191906000526020600020905b815481529060010190602001808311611dbc57829003601f168201915b5050505050815260200160058201548152602001600682015481526020016007820160009054906101000a900460ff16151515158152505081526020016008820154815260200160098201548152602001600a8201548152602001600b8201548152602001600c8201548152602001600d82018054611e5790612a42565b80601f0160208091040260200160405190810160405280929190818152602001828054611e8390612a42565b8015611ed05780601f10611ea557610100808354040283529160200191611ed0565b820191906000526020600020905b815481529060010190602001808311611eb357829003601f168201915b50505050508152602001600e82018054611ee990612a42565b80601f0160208091040260200160405190810160405280929190818152602001828054611f1590612a42565b8015611f625780601f10611f3757610100808354040283529160200191611f62565b820191906000526020600020905b815481529060010190602001808311611f4557829003601f168201915b50505050508152602001600f820154815260200160108201548152602001601182018054611f8f90612a42565b80601f0160208091040260200160405190810160405280929190818152602001828054611fbb90612a42565b80156120085780601f10611fdd57610100808354040283529160200191612008565b820191906000526020600020905b815481529060010190602001808311611feb57829003601f168201915b505050505081526020016012820160009054906101000a900473ffffffffffffffffffffffffffffffffffffffff1673ffffffffffffffffffffffffffffffffffffffff1673ffffffffffffffffffffffffffffffffffffffff1681525050905060008160600151146120b0576040517f08c379a00000000000000000000000000000000000000000000000000000000081526004016120a790612dae565b60405180910390fd5b600081604001519050600082610160015190508073ffffffffffffffffffffffffffffffffffffffff166108fc839081150290604051600060405180830381858888f19350505050158015612109573d6000803e3d6000fd5b5050505050565b60025481565b82805461212290612a42565b90600052602060002090601f016020900481019282612144576000855561218b565b82601f1061215d57805160ff191683800117855561218b565b8280016001018555821561218b579182015b8281111561218a57825182559160200191906001019061216f565b5b509050612198919061219c565b5090565b5b808211156121b557600081600090555060010161219d565b5090565b6000604051905090565b600080fd5b600080fd5b6000819050919050565b6121e0816121cd565b81146121eb57600080fd5b50565b6000813590506121fd816121d7565b92915050565b600080fd5b600080fd5b6000601f19601f8301169050919050565b7f4e487b7100000000000000000000000000000000000000000000000000000000600052604160045260246000fd5b6122568261220d565b810181811067ffffffffffffffff821117156122755761227461221e565b5b80604052505050565b60006122886121b9565b9050612294828261224d565b919050565b600067ffffffffffffffff8211156122b4576122b361221e565b5b6122bd8261220d565b9050602081019050919050565b82818337600083830152505050565b60006122ec6122e784612299565b61227e565b90508281526020810184848401111561230857612307612208565b5b6123138482856122ca565b509392505050565b600082601f8301126123305761232f612203565b5b81356123408482602086016122d9565b91505092915050565b600080600080600080600080610100898b03121561236a576123696121c3565b5b60006123788b828c016121ee565b98505060206123898b828c016121ee565b975050604061239a8b828c016121ee565b965050606089013567ffffffffffffffff8111156123bb576123ba6121c8565b5b6123c78b828c0161231b565b955050608089013567ffffffffffffffff8111156123e8576123e76121c8565b5b6123f48b828c0161231b565b94505060a06124058b828c016121ee565b93505060c06124168b828c016121ee565b92505060e089013567ffffffffffffffff811115612437576124366121c8565b5b6124438b828c0161231b565b9150509295985092959890939650565b600073ffffffffffffffffffffffffffffffffffffffff82169050919050565b600061247e82612453565b9050919050565b61248e81612473565b82525050565b60006020820190506124a96000830184612485565b92915050565b6124b8816121cd565b82525050565b60006020820190506124d360008301846124af565b92915050565b600080604083850312156124f0576124ef6121c3565b5b60006124fe858286016121ee565b925050602061250f858286016121ee565b9150509250929050565b600080600080600060a08688031215612535576125346121c3565b5b600086013567ffffffffffffffff811115612553576125526121c8565b5b61255f8882890161231b565b9550506020612570888289016121ee565b945050604086013567ffffffffffffffff811115612591576125906121c8565b5b61259d8882890161231b565b93505060606125ae888289016121ee565b92505060806125bf888289016121ee565b9150509295509295909350565b6000602082840312156125e2576125e16121c3565b5b60006125f0848285016121ee565b91505092915050565b600081519050919050565b600082825260208201905092915050565b60005b83811015612633578082015181840152602081019050612618565b83811115612642576000848401525b50505050565b6000612653826125f9565b61265d8185612604565b935061266d818560208601612615565b6126768161220d565b840191505092915050565b600061268c82612453565b9050919050565b61269c81612681565b82525050565b6126ab816121cd565b82525050565b60008115159050919050565b6126c6816126b1565b82525050565b60006101008301600083015184820360008601526126ea8282612648565b91505060208301516126ff6020860182612693565b50604083015161271260408601826126a2565b50606083015161272560608601826126a2565b506080830151848203608086015261273d8282612648565b91505060a083015161275260a08601826126a2565b5060c083015161276560c08601826126a2565b5060e083015161277860e08601826126bd565b508091505092915050565b600082825260208201905092915050565b600061279f826125f9565b6127a98185612783565b93506127b9818560208601612615565b6127c28161220d565b840191505092915050565b60006101808201905081810360008301526127e8818f6126cc565b90506127f7602083018e6124af565b612804604083018d6124af565b612811606083018c6124af565b61281e608083018b6124af565b61282b60a083018a6124af565b81810360c083015261283d8189612794565b905081810360e08301526128518188612794565b90506128616101008301876124af565b61286f6101208301866124af565b8181036101408301526128828185612794565b9050612892610160830184612485565b9d9c50505050505050505050505050565b6128ac81612681565b82525050565b6128bb816126b1565b82525050565b60006101008201905081810360008301526128dc818b612794565b90506128eb602083018a6128a3565b6128f860408301896124af565b61290560608301886124af565b81810360808301526129178187612794565b905061292660a08301866124af565b61293360c08301856124af565b61294060e08301846128b2565b9998505050505050505050565b600060a082019050818103600083015261296781886126cc565b905061297660208301876124af565b61298360408301866124af565b61299060608301856124af565b61299d60808301846124af565b9695505050505050565b7f656e74657220746865206c697374696e6720616d6f756e740000000000000000600082015250565b60006129dd601883612783565b91506129e8826129a7565b602082019050919050565b60006020820190508181036000830152612a0c816129d0565b9050919050565b7f4e487b7100000000000000000000000000000000000000000000000000000000600052602260045260246000fd5b60006002820490506001821680612a5a57607f821691505b60208210811415612a6e57612a6d612a13565b5b50919050565b7f796f7520617265206e6f7420612076616c696420757365720000000000000000600082015250565b6000612aaa601883612783565b9150612ab582612a74565b602082019050919050565b60006020820190508181036000830152612ad981612a9d565b9050919050565b7f4e487b7100000000000000000000000000000000000000000000000000000000600052601160045260246000fd5b6000612b1a826121cd565b91507fffffffffffffffffffffffffffffffffffffffffffffffffffffffffffffffff821415612b4d57612b4c612ae0565b5b600182019050919050565b7f496e76657374206163636f7264696e676c79206d696e69756d20616d6f756e74600082015250565b6000612b8e602083612783565b9150612b9982612b58565b602082019050919050565b60006020820190508181036000830152612bbd81612b81565b9050919050565b7f496e76657374206c657373207468616e20617661696c61626c6520616d6f756e60008201527f7400000000000000000000000000000000000000000000000000000000000000602082015250565b6000612c20602183612783565b9150612c2b82612bc4565b604082019050919050565b60006020820190508181036000830152612c4f81612c13565b9050919050565b6000612c61826121cd565b9150612c6c836121cd565b925082821015612c7f57612c7e612ae0565b5b828203905092915050565b7f54686973206164647265737320697320616c7265646179206178697374000000600082015250565b6000612cc0601d83612783565b9150612ccb82612c8a565b602082019050919050565b60006020820190508181036000830152612cef81612cb3565b9050919050565b7f796f7520617265206e6f742061206d616e616765720000000000000000000000600082015250565b6000612d2c601583612783565b9150612d3782612cf6565b602082019050919050565b60006020820190508181036000830152612d5b81612d1f565b9050919050565b7f4c697374696e67207374696c6c206f70656e0000000000000000000000000000600082015250565b6000612d98601283612783565b9150612da382612d62565b602082019050919050565b60006020820190508181036000830152612dc781612d8b565b905091905056fea2646970667358221220b495ceddc68d4025cfd97cc07b5af28c1e925df17d33210ef8cd95b5094b0aa864736f6c634300080b0033",
  "immutableReferences": {},
  "source": "// SPDX-License-Identifier: GPL-3.0\n\npragma solidity 0.8.11;\npragma experimental ABIEncoderV2;\n\n\ncontract Property {\n    address payable public manager;\n    uint256 public userId;\n    uint256 public propertyId;\n\n    constructor(){\n        manager = payable(msg.sender);\n    }\n    //vallid user modifi\n\n    modifier onlyValidUser {\n        Profile memory _user = profiles[userId];\n       require(_user.validUser == true && _user.userAddress == msg.sender, \"you are not a vaild user\");\n       _; \n    }\n\n    //only Manager modifier\n\n    modifier onlyManager {\n        require(msg.sender == manager, \"you are not a manager\");\n        _;\n    }\n\n    // User Profile Struct\n\n    struct Profile {\n        string userName;\n        address userAddress;\n        uint256 userMobile;\n        uint256 userId;\n        string emailAddress;\n        uint256 userPanCrad;\n        uint256 userAdharCrad;\n        bool validUser;\n    }\n    mapping(uint=>Profile) public profiles;\n\n    // List property Struct\n\n    struct ListProperty {\n        Profile profileData;\n        uint256 currentPropertyId;\n        uint listingAmount;\n        uint availableAmount;\n        uint256 longitude;\n        uint256 latitude;\n        string propertySize;\n        // string description;\n        string residentialAddress;\n        uint256 durationsDays;\n        uint256 minimumAmount;\n        string ipfsHash;\n        address payable userAddress;\n    }\n\n    mapping(uint=>ListProperty) public listProperties;\n\n    // ListProperty[] public listProperties;\n\n\n    //investing\n\n    struct Invest {\n        Profile profileData;\n        uint256 investedPropertyId;\n        uint256 userId;\n        uint investingAmount;\n        uint time;\n    }\n\n    Invest[] public investings;\n\n\n    //Creating New User Profile\n\n    function profile(string memory _name,uint256 _mobile, string memory _email, uint256 _pan, uint256 _adhar) public payable   {\n        for(uint i=0; i<= userId; i++){\n        address newaddress = profiles[i].userAddress;\n        require(newaddress != msg.sender, \"This address is alreday axist\");\n        }\n        userId ++;\n        profiles[userId]=Profile(_name, msg.sender,_mobile,userId,_email,_pan,_adhar, true);\n    }\n\n    //List your Property \n\n    function listNewProperty(uint _userId,uint256 _long,uint256 _lati,string memory _size, string memory _rAddress, uint256 _dueDate, uint256 _minAmount, string memory _ipfsHashImg) public payable {\n        require(msg.value > 0,\"enter the listing amount\");\n        Profile memory _userProfileData = profiles[_userId];\n        require(_userProfileData.validUser == true,\"you are not a valid user\");\n         propertyId ++;\n         listProperties[propertyId] = ListProperty(_userProfileData,propertyId,msg.value,msg.value,_long,_lati,_size,_rAddress,_dueDate,_minAmount, _ipfsHashImg, payable (msg.sender));\n    }\n\n    //Investing in property\n\n    function investing(uint _propertyId, uint _userId) public payable  {\n        Profile memory _userProfileData = profiles[_userId];\n        ListProperty memory _singleList = listProperties[_propertyId];\n\n        //minium amount check\n        require(_singleList.minimumAmount <= msg.value, \"Invest accordingly minium amount\");\n        require(_singleList.availableAmount >= msg.value, \"Invest less than available amount\");\n        require(_userProfileData.validUser == true,\"you are not a valid user\");\n        Invest memory _newInvest = Invest({\n            profileData: _userProfileData,\n            investedPropertyId: _propertyId,\n            investingAmount: msg.value,\n            userId: _userProfileData.userId,\n            time: block.timestamp\n        });\n\n      \n        _singleList.availableAmount = _singleList.availableAmount - msg.value;\n       listProperties[_propertyId] = _singleList;\n       investings.push(_newInvest);\n        //transfer ether into manager account\n       manager.transfer(msg.value);\n    }\n\n    function transferEthToOwner(uint _id) public payable onlyManager {\n        ListProperty memory _listed = listProperties[_id];\n        require(_listed.availableAmount == 0, \"Listing still open\");\n        uint _transferValue = _listed.listingAmount;\n        address payable _transferAccount = _listed.userAddress;\n        _transferAccount.transfer(_transferValue);\n    }\n\n}",
  "sourcePath": "/home/kapildave7/Development/projects/personal/blockchain/propertydApp/contracts/Property.sol",
  "compiler": {
    "name": "solc",
    "version": "0.8.11+commit.d7f03943.Emscripten.clang"
  },
  "schemaVersion": "3.4.4",
  "updatedAt": "2022-06-15T07:44:56.028Z",
  "networkType": "ethereum",
  "devdoc": {
    "kind": "dev",
    "methods": {},
    "version": 1
  },
  "userdoc": {
    "kind": "user",
    "methods": {},
    "version": 1
  }
}